:020000040000FA
:10000000C002001071010000790100007B010000B6
:100010007D0100007F010000810100000000000060
:10002000000000000000000000000000830100004C
:100030008501000000000000870100008901000028
:100040008B0100008B0100008B0100008B01000080
:100050008B0100008B0100008B0100008B01000070
:100060008B0100008B0100008B0100008B01000060
:100070008B0100008B0100008B0100008B01000050
:100080008B010000CD0900008B0100008B010000F6
:100090008B0100008B0100008B0100008B01000030
:1000A0008B0100008B0100008B0100008B01000020
:1000B0008B0100003D0800008B0100008B01000057
:1000C0008B0100008B0100008B01000000F002F8A2
:1000D00000F03FF80AA090E8000C82448344AAF1A3
:1000E0000107DA4501D100F034F8AFF2090EBAE8A1
:1000F0000F0013F0010F18BFFB1A43F0010318475C
:100100007C1000009C100000103A24BF78C878C111
:10011000FAD8520724BF30C830C144BF04680C600D
:10012000704700000023002400250026103A28BF55
:1001300078C1FBD8520728BF30C148BF0B60704759
:10014000752900F00581002070471FB51FBD10B54F
:1001500010BD00F047FA1146FFF7F7FF00F0B5FEBB
:1001600000F0BAF803B4FFF7F2FF03BC00F060FA46
:100170000948804709480047FEE7FEE7FEE7FEE73B
:10018000FEE7FEE7FEE7FEE7FEE7FEE70448054977
:10019000034A054B704700000D0B0000CD00000026
:1001A000C0000010C0020010C000001053EA020C92
:1001B00000F069802DE9F04B4FF00006002B1FBFC7
:1001C000B3FA83F503FA05F424FA05F65E4012BF8C
:1001D0001643B2FA82F502FA05F4C5F120051EBFF6
:1001E00022FA05FC44EA0C04203556EA044C4FEA96
:1001F000144418BF641C4FF000084FF000099042EF
:1002000071EB030C39D3002919BFB1FA81F701FA58
:1002100007F6B0FA80F700FA07F6C7F120071EBF0D
:1002200020FA07FC46EA0C062037B6FBF4FCA7EBE5
:100230000507103F07F01F0BCBF120060CFA0BFB54
:100240002CFA06F644BFB3460026202FA4BF5E4614
:100250004FF0000B5BEA060C08BF4FF0010B19EBE7
:100260000B09ABFB027C48EB0608C01B06FB02CC6B
:100270000BFB03CC71EB0C01C1E70B460246414678
:100280004846BDE8F08B13B54FF000004FF0000179
:10029000AFF30080BDE81C40704700000FB41CB5F0
:1002A000084B06AA7B4469460090059800F087F940
:1002B00004460020694600F00AF820461CBC5DF8A0
:1002C00014FB0000270000007047704770470A6861
:1002D00002F8010B0A60704710B50446AFF30080C6
:1002E0002046BDE81040FFF73DBF000000487047C2
:1002F0005C0000107047000000000000FFFFFFFFDF
:1003000070B5044685690068C10601D5302600E055
:100310002026C00707D070BDD4E9012130469047A0
:10032000206A401C20626D1EF6D570BD70B5044673
:1003300085690078C00707D170BDD4E9012120206C
:100340009047206A401C20626D1EF6D570BD0000EB
:100350002DE9F0410646002410687529314616A59E
:1003600010D0AFF30080002802DA404213A507E066
:1003700031688A0701D512A502E0490704D511A505
:10038000012401E0AFF3008000210A2206F12407D6
:1003900009E0B0FBF2FCB0FBF2F302FB1C003030D2
:1003A00078541846491C0028F3D123462A46304683
:1003B000BDE8F04100F0A4B8000000002D000000EE
:1003C0002B000000200000002DE9F05F8946044664
:1003D0004FF0000ADFF824B1FB44C0F820A020460B
:1003E000E168884700287DD0252806D0D4E901217E
:1003F0009047206A401C2062F1E700255F462046B6
:10040000E16888472028064607DB312E05D2B81957
:1004100010F8200C08B10543F1E7A80701D525F035
:100420000405C4F81CA00027C4F818A02A2E09D07F
:10043000304600F043FD38B304EB8708303EC8F87F
:10044000186019E059F8041B204604EB87029161FB
:10045000E1688847012F064618D1E069002820DAB4
:1004600025F020051DE0D8F8180000EB800006EB11
:1004700040003038C8F818002046E1688847064632
:1004800000F01CFD0028EED1012F0AD02E2E08D13D
:100490002046E16888477F1C0646022F45F020056C
:1004A000C4DBA069002803DA404245F00105A061E1
:1004B000E80701D025F01005A6B1A6F141001928E2
:1004C00002D8203645F400654A463146204625606C
:1004D0004D46FFF735FE60B1012807D0ED1D25F030
:1004E000070000E007E000F1080978E705F10409DA
:1004F00075E730467AE7206ABDE8F09F8C0D000072
:100500002DE9F0470D4699469246044600F124082D
:100510000168880604D5E06921F01001216000E03F
:100520000120A84201DD471B00E00027A1697A19DC
:1005300002EB0900081AA0612078C00602D4204608
:10054000FFF7DEFE002608E0D4E901211AF80600D4
:100550009047206A401C761C20624E45F4DB2078D0
:10056000C0060AD52046FFF7CBFE06E0D4E90121FC
:1005700030209047206A401C2062381EA7F10107F6
:10058000F4DC07E0D4E9012118F805009047206A5F
:10059000401C2062281EA5F10105F3DC2046FFF770
:1005A000C5FE2078000602D50220BDE8F0870120B4
:1005B000FBE7000001694A1C02610878704700B53A
:1005C0008FB0CDE901310021059105497944CDE98C
:1005D000031011466846FFF7F7FE0FB000BD00009C
:1005E000E5FFFFFF7546FFF781FEAE460500694651
:1005F000534620F00700854618B020B5FFF7C6FD2A
:10060000BDE820404FF000064FF000074FF0000813
:100610004FF0000B21F00701AC46ACE8C009ACE894
:10062000C009ACE8C009ACE8C0098D4670470000BD
:1006300001491820ABBEFEE726000200012909D1BE
:100640000A4A12680A4B03401A43084BC43BC3F8DA
:10065000C42009E041B9054A1268054B83431A409A
:10066000024BC43BC3F8C42070470000C4C00F4015
:10067000DEF7EFEF70B506460D480468304600F02F
:1006800019F8054635B1012D06D0022D06D0032DEF
:1006900008D105E0042505E0012503E0022501E07D
:1006A000082500BF00BFB4FBF5F4204670BD000074
:1006B000040000100146202903D20A46064B1868A0
:1006C00004E0A1F12002044B1B1D186820FA02F37C
:1006D00003F0030070470000A8C10F4010B509489F
:1006E00000F0B8F81D20002809DB00F01F020121EE
:1006F00091404209920002F1E022C2F8001100BFCD
:1007000010BD000000000B401FB501208DF80A004D
:1007100000208DF80C0002208DF80B000A208DF8C7
:10072000090000208DF8080002A800F065F80B20F1
:100730008DF8090002A800F05FF8FFF7CFFF4FF433
:10074000E130009003208DF8050000208DF80400B2
:100750008DF806006946144800F078FA0121124825
:1007600000F088FB114800F089F9104800F095F975
:1007700001210E4800F08EF800210C4800F07AF8B4
:1007800001220021094800F091F81120002809DB1E
:1007900000F01F02012191404209920002F1E02283
:1007A000C2F8001100BF1FBD008009400040024098
:1007B00010B5002211460F4800F078F900220121FF
:1007C0000C4800F073F9002202210A4800F06EF98B
:1007D00001220421074800F069F901220621054899
:1007E00000F064F940F2E2720721024800F05EF97D
:1007F00010BD00000040024010B50446A2786178A8
:10080000207800F081FBE2786178207800F09CFB92
:1008100022796178207800F05FFB10BD0146087AEC
:1008200000F0010008B1012201E000207047087AC1
:1008300040F0010008721046F8E7000010B50348C8
:10084000FFF7ECFF01200249087010BD00000B40CB
:100850000100001010B5044601210804FFF7EEFE68
:100860004FF0FF302060002060600C2020720020DC
:10087000E06010BD012904D1027A02F00302027285
:1008800003E0027A42F010020272704702780A43D3
:1008900002707047012904D1027A42F0010202720B
:1008A00003E0027A02F0120202727047012A30D18C
:1008B00008292DD2DFE801F004090E13181D2227A4
:1008C000037B43F00103037322E0037B43F0020345
:1008D00003731DE0037B43F00403037318E0037B01
:1008E00043F01003037313E0037B43F00803037327
:1008F0000EE0037B43F02003037309E0037B43F026
:100900004003037304E0037B43F08003037300BFE1
:1009100030E008292DD2DFE801F004090E13181D7C
:100920002227037B03F0FE03037322E0037B03F023
:10093000FD0303731DE0037B03F0FB03037318E067
:10094000037B03F0EF03037313E0037B03F0F70370
:1009500003730EE0037B03F0DF03037309E0037B03
:1009600003F0BF03037304E0037B03F07F0303730F
:1009700000BF00BF70472030027B02F01F02CA6038
:10098000027C02F007020A61828AC2F308024A610D
:10099000027A02F01F028A60027902F03F024A6086
:1009A000027802F03F020A60027E02F00F028A61C2
:1009B000828B2038C2F30B02CA617047024610785E
:1009C000084008B1012070470020FCE708B501216C
:1009D0001948FFF7F3FF00282DD001211648FFF733
:1009E00055FF16491448FFF7C6FF144800680090E9
:1009F0001248436812A182681748FFF74FFC174955
:100A000008700123084602781349154800F0DEF902
:100A10000A48C06800900948836912A1C2690E485B
:100A2000FFF73CFC0D4908700123084602780A498B
:100A30000B4800F0CBF908BD004002400800001050
:100A400054696D653A20253032753A253032753A51
:100A5000253032750A000000280000100000001048
:100A600000800940446174653A20253034753A2588
:100A70003032753A253032750A00000010B5044650
:100A800001214802FFF7DAFD002020702072207358
:100A9000FF2020740020206410BD017A41F0020183
:100AA0000172017A01F011010172704708292BD2FD
:100AB000DFE801F004090E13181D212602F03F03A0
:100AC00080F8203020E002F03F0380F824301BE063
:100AD00002F01F0380F8283016E002F0070380F8C8
:100AE000303011E002F01F0380F82C300CE0C2F32C
:100AF0000803838608E002F00F0380F8383003E033
:100B0000C2F30B03838700BF00BF704720204B490F
:100B100008604B48D0F8A00100F0200030B100BFC1
:100B20004648006800F040000028F9D003204349FF
:100B30009C39086000204249C1F8A8013F490C31A6
:100B4000086001203D49943908603E483C498431A1
:100B50000860AA203A498C310860552008600120BD
:100B6000374980310860AA2035498C31086055200A
:100B70003349C1F88C0000BF31488830006800F06C
:100B800080600028F8D003202D4980310860AA2019
:100B90002B49C1F88C00552029498C31086000BFD1
:100BA00027488830006800F04070B0F1407FF7D1EE
:100BB00023202349A4310860AA202149C1F8AC00B0
:100BC00055201F49AC31086001201D49A031086043
:100BD000AA201B49AC31086055201949C1F8AC0066
:100BE00000BF1748A830006800F480600028F8D0E3
:100BF00003201349A0310860AA201149C1F8AC00B4
:100C000055200F49AC31086000BF0D48A83000687E
:100C100000F44070B0F5407FF7D10B480849C4316B
:100C2000086000200649C1F8C8010846006820F4A1
:100C3000704040F48040086070470000A0C10F4041
:100C400000C00F4063000500DE87280470B504462D
:100C50000E465A48844203D101210820FFF7EEFCDA
:100C60005748844203D101211020FFF7E7FC554883
:100C7000844203D101210806FFF7E0FC5248844278
:100C800003D101214806FFF7D9FC4D48844223D106
:100C9000072020720020207200E02578207D00F0DF
:100CA00001000028F9D1802084F8300000BF207DA9
:100CB00000F020000028FAD0002084F830006060A6
:100CC00020732062207484F84C0084F8540084F867
:100CD0005000257E257D1AE007202072002020721A
:100CE00000E02578207D00F001000028F9D1802067
:100CF00084F8300000BF207D00F020000028FAD0EA
:100D0000002084F83000606020732062257D2E482A
:100D1000844202D1002084F824002046316800F08B
:100D200033F92748844203D1207B00F0C00502E05C
:100D3000207B00F0C005707930B1012806D0022870
:100D400007D0032808D108E000BF09E045F00105FD
:100D500006E045F0020503E000BF45F0030500BFD3
:100D600000BF3079C0B145F008053079012806D0C0
:100D7000022806D0032807D004280BD107E000BFC3
:100D800009E045F0100506E045F0200503E045F0D8
:100D9000300500E000BF00BFB07928B1012802D1C2
:100DA00045F0040501E000BF00BF00BF04488442D5
:100DB00001D1257300E0257370BD000000C0004024
:100DC000000001400080094000C009402DE9F04FBB
:100DD0000746894692469B464E465346BBF1010F55
:100DE00024D100241FE04FF0FF3805E0B8F1000FD8
:100DF00000D106E0A8F10108387D00F020000028AD
:100E0000F4D000BFB8F1000F00D10EE0102507E0CC
:100E100016F8011B384600F023F86D1E5B1E641C9B
:100E20000DB1002BF4D1002BDDD116E0002411E030
:100E3000387D00F0200000B90EE0102507E016F81C
:100E4000011B384600F00CF85B1E6D1E641C0DB1D2
:100E5000002BF4D1002BEBD100BF2046BDE8F08F72
:100E6000034A904201D1017000E001707047000018
:100E700000000140012910D10F4A904206D190F89C
:100E8000302042F0800280F8302014E090F83020CA
:100E900042F0800280F830200DE0074A904205D1F0
:100EA00090F83020002280F8302004E090F83020C4
:100EB000002280F8302070470000014030380A28B6
:100EC00001D20120704700207047FFF71DFCFFF79B
:100ED0006FFC00BFFEE7000030B50B460949012A50
:100EE00007D151F8204001259D402C4341F8204076
:100EF00006E051F8204001259D40AC4341F82040D8
:100F000030BD000068C00240F0B504460B461546EF
:100F1000194660000B4A102901D31039401C52F8C1
:100F200020604FEA410C032707FA0CF7BE4342F852
:100F3000206052F820604F0005FA07F73E4342F860
:100F40002060F0BD00C00240F0B504460B461546D7
:100F5000194660000B4A102901D31039401C52F881
:100F600020604FEA410C032707FA0CF7BE4342F812
:100F7000206052F820604F0005FA07F73E4342F820
:100F80002060F0BD40C002402DE9F04F8BB0044618
:100F90008946002009907048844204D10620FFF75A
:100FA00069FB074616E06D48844204D10820FFF72C
:100FB00061FB07460EE06A48844204D13020FFF707
:100FC00059FB074606E06748844203D13220FFF709
:100FD00051FB07464FF0FF3B00200790069000258D
:100FE0002E464FF001084DE00020089040E00898A0
:100FF000404400FB09FC0020010741EA17113807B3
:101000000022A0FB083E01FB08E100FB0210624643
:10101000CDE900300023DDE90001FFF7C7F8CDE995
:10102000040104980390DDF814A00398B0F1004F78
:1010300004D90398404203900AF1010ABAF1000F63
:1010400002D0BAF5803F00D90FE0039858450BD283
:10105000DDF80CB00026554608980790CDF81880AA
:10106000BBF1000F00D106E000BF0898401C0890BB
:1010700008984045BBD300BFBBF1000F00D104E08E
:1010800008F10108B8F10F0FAED900BF002185EAC1
:1010900001007140084302D10BB0BDE8F08F380960
:1010A000069900FB01FC0846079908440021A0FBB3
:1010B000052301FB053100FB06100346CDE90020A6
:1010C00060460021FFF772F802900298814503D92B
:1010D0000298A9EB000B02E00298A0EB090B642038
:1010E0000BFB00F0B0FBF9FBBBF1030F32D21B4846
:1010F000844216D1207B40F080002073280A40EA09
:10110000066020712570207B00F07F002073F021A5
:10111000069801EA0010079901F00F010843A06248
:1011200016E0207B40F080002073280A40EA066029
:1011300020712570207B00F07F002073F02106983D
:1011400001EA0010079901F00F01084384F8280014
:101150000120099009989FE700C00040000001406D
:101160000080094000C009400400000800000000A1
:101170000000000200010000100000009C110000AF
:10118000000000100800000008010000A411000089
:1011900008000010B8020000240100000000000058
:0411A00000E1F50570
:040000050000017185
:00000001FF
